{
  "_format": "hh-sol-artifact-1",
  "contractName": "Crowdsale",
  "sourceName": "contracts/Crowdsale.sol",
  "abi": [
    {
      "inputs": [
        {
          "internalType": "uint256",
          "name": "_rate",
          "type": "uint256"
        },
        {
          "internalType": "address payable",
          "name": "_wallet",
          "type": "address"
        },
        {
          "internalType": "contract ERC20",
          "name": "_token",
          "type": "address"
        }
      ],
      "stateMutability": "nonpayable",
      "type": "constructor"
    },
    {
      "anonymous": false,
      "inputs": [
        {
          "indexed": true,
          "internalType": "address",
          "name": "purchaser",
          "type": "address"
        },
        {
          "indexed": true,
          "internalType": "address",
          "name": "beneficiary",
          "type": "address"
        },
        {
          "indexed": false,
          "internalType": "uint256",
          "name": "value",
          "type": "uint256"
        },
        {
          "indexed": false,
          "internalType": "uint256",
          "name": "amount",
          "type": "uint256"
        }
      ],
      "name": "TokenPurchase",
      "type": "event"
    },
    {
      "stateMutability": "payable",
      "type": "fallback"
    },
    {
      "inputs": [
        {
          "internalType": "address",
          "name": "_beneficiary",
          "type": "address"
        }
      ],
      "name": "buyTokens",
      "outputs": [],
      "stateMutability": "payable",
      "type": "function"
    },
    {
      "inputs": [
        {
          "internalType": "address",
          "name": "",
          "type": "address"
        }
      ],
      "name": "contributions",
      "outputs": [
        {
          "internalType": "uint256",
          "name": "",
          "type": "uint256"
        }
      ],
      "stateMutability": "view",
      "type": "function"
    },
    {
      "inputs": [],
      "name": "investorMaxCap",
      "outputs": [
        {
          "internalType": "uint256",
          "name": "",
          "type": "uint256"
        }
      ],
      "stateMutability": "view",
      "type": "function"
    },
    {
      "inputs": [],
      "name": "investorMinCap",
      "outputs": [
        {
          "internalType": "uint256",
          "name": "",
          "type": "uint256"
        }
      ],
      "stateMutability": "view",
      "type": "function"
    },
    {
      "inputs": [],
      "name": "rate",
      "outputs": [
        {
          "internalType": "uint256",
          "name": "",
          "type": "uint256"
        }
      ],
      "stateMutability": "view",
      "type": "function"
    },
    {
      "inputs": [],
      "name": "token",
      "outputs": [
        {
          "internalType": "contract ERC20",
          "name": "",
          "type": "address"
        }
      ],
      "stateMutability": "view",
      "type": "function"
    },
    {
      "inputs": [],
      "name": "transferToken",
      "outputs": [],
      "stateMutability": "nonpayable",
      "type": "function"
    },
    {
      "inputs": [],
      "name": "wallet",
      "outputs": [
        {
          "internalType": "address payable",
          "name": "",
          "type": "address"
        }
      ],
      "stateMutability": "view",
      "type": "function"
    },
    {
      "inputs": [],
      "name": "weiRaised",
      "outputs": [
        {
          "internalType": "uint256",
          "name": "",
          "type": "uint256"
        }
      ],
      "stateMutability": "view",
      "type": "function"
    },
    {
      "stateMutability": "payable",
      "type": "receive"
    }
  ],
  "bytecode": "0x6080604052668e1bc9bf040000600655670de0b6b3a76400006007553480156200002857600080fd5b5060405162000f7b38038062000f7b83398181016040528101906200004e91906200016d565b600083116200005c57600080fd5b600073ffffffffffffffffffffffffffffffffffffffff168273ffffffffffffffffffffffffffffffffffffffff1614156200009757600080fd5b8260028190555081600160006101000a81548173ffffffffffffffffffffffffffffffffffffffff021916908373ffffffffffffffffffffffffffffffffffffffff160217905550806000806101000a81548173ffffffffffffffffffffffffffffffffffffffff021916908373ffffffffffffffffffffffffffffffffffffffff16021790555050505062000277565b600081519050620001398162000229565b92915050565b600081519050620001508162000243565b92915050565b60008151905062000167816200025d565b92915050565b6000806000606084860312156200018357600080fd5b6000620001938682870162000156565b9350506020620001a68682870162000128565b9250506040620001b9868287016200013f565b9150509250925092565b6000620001d082620001ff565b9050919050565b6000620001e482620001ff565b9050919050565b6000620001f882620001c3565b9050919050565b600073ffffffffffffffffffffffffffffffffffffffff82169050919050565b6000819050919050565b6200023481620001d7565b81146200024057600080fd5b50565b6200024e81620001eb565b81146200025a57600080fd5b50565b62000268816200021f565b81146200027457600080fd5b50565b610cf480620002876000396000f3fe60806040526004361061008a5760003560e01c8063799a535911610059578063799a53591461015a5780639250c36714610171578063b25d7f541461019c578063ec8ac4d8146101c7578063fc0c546a146101e357610091565b80632c4e722e1461009c5780634042b66f146100c757806342e94c90146100f2578063521eb2731461012f57610091565b3661009157005b61009a3361020e565b005b3480156100a857600080fd5b506100b16102d5565b6040516100be9190610ac7565b60405180910390f35b3480156100d357600080fd5b506100dc6102db565b6040516100e99190610ac7565b60405180910390f35b3480156100fe57600080fd5b5061011960048036038101906101149190610876565b6102e1565b6040516101269190610ac7565b60405180910390f35b34801561013b57600080fd5b506101446102f9565b6040516101519190610a08565b60405180910390f35b34801561016657600080fd5b5061016f61031f565b005b34801561017d57600080fd5b50610186610530565b6040516101939190610ac7565b60405180910390f35b3480156101a857600080fd5b506101b1610536565b6040516101be9190610ac7565b60405180910390f35b6101e160048036038101906101dc9190610876565b61020e565b005b3480156101ef57600080fd5b506101f861053c565b6040516102059190610a4c565b60405180910390f35b600034905061021d8282610560565b6000610228826106d7565b9050816003600082825461023c9190610b1c565b9250508190555061024d83826106ee565b8273ffffffffffffffffffffffffffffffffffffffff163373ffffffffffffffffffffffffffffffffffffffff167f623b3804fa71d67900d064613da8f94b9617215ee90799290593e1745087ad1884846040516102ac929190610ae2565b60405180910390a36102be83836106fc565b6102c6610700565b6102d0838361076b565b505050565b60025481565b60035481565b60046020528060005260406000206000915090505481565b600160009054906101000a900473ffffffffffffffffffffffffffffffffffffffff1681565b600560009054906101000a900473ffffffffffffffffffffffffffffffffffffffff1673ffffffffffffffffffffffffffffffffffffffff163373ffffffffffffffffffffffffffffffffffffffff16146103af576040517f08c379a00000000000000000000000000000000000000000000000000000000081526004016103a690610aa7565b60405180910390fd5b60008060009054906101000a900473ffffffffffffffffffffffffffffffffffffffff1673ffffffffffffffffffffffffffffffffffffffff166370a08231306040518263ffffffff1660e01b815260040161040b91906109ed565b60206040518083038186803b15801561042357600080fd5b505afa158015610437573d6000803e3d6000fd5b505050506040513d601f19601f8201168201806040525081019061045b91906108c8565b905060008054906101000a900473ffffffffffffffffffffffffffffffffffffffff1673ffffffffffffffffffffffffffffffffffffffff1663a9059cbb600560009054906101000a900473ffffffffffffffffffffffffffffffffffffffff16836040518363ffffffff1660e01b81526004016104da929190610a23565b602060405180830381600087803b1580156104f457600080fd5b505af1158015610508573d6000803e3d6000fd5b505050506040513d601f19601f8201168201806040525081019061052c919061089f565b5050565b60075481565b60065481565b60008054906101000a900473ffffffffffffffffffffffffffffffffffffffff1681565b600073ffffffffffffffffffffffffffffffffffffffff168273ffffffffffffffffffffffffffffffffffffffff16141561059a57600080fd5b60008114156105a857600080fd5b6000600460008473ffffffffffffffffffffffffffffffffffffffff1673ffffffffffffffffffffffffffffffffffffffff1681526020019081526020016000205490506000610601838361076f90919063ffffffff16565b9050600654811015610648576040517f08c379a000000000000000000000000000000000000000000000000000000000815260040161063f90610a87565b60405180910390fd5b60075481111561068d576040517f08c379a000000000000000000000000000000000000000000000000000000000815260040161068490610a67565b60405180910390fd5b80600460008673ffffffffffffffffffffffffffffffffffffffff1673ffffffffffffffffffffffffffffffffffffffff1681526020019081526020016000208190555050505050565b6000600254826106e79190610b72565b9050919050565b6106f88282610785565b5050565b5050565b600160009054906101000a900473ffffffffffffffffffffffffffffffffffffffff1673ffffffffffffffffffffffffffffffffffffffff166108fc349081150290604051600060405180830381858888f19350505050158015610768573d6000803e3d6000fd5b50565b5050565b6000818361077d9190610b1c565b905092915050565b60008054906101000a900473ffffffffffffffffffffffffffffffffffffffff1673ffffffffffffffffffffffffffffffffffffffff1663a9059cbb83836040518363ffffffff1660e01b81526004016107e0929190610a23565b602060405180830381600087803b1580156107fa57600080fd5b505af115801561080e573d6000803e3d6000fd5b505050506040513d601f19601f82011682018060405250810190610832919061089f565b505050565b60008135905061084681610c79565b92915050565b60008151905061085b81610c90565b92915050565b60008151905061087081610ca7565b92915050565b60006020828403121561088857600080fd5b600061089684828501610837565b91505092915050565b6000602082840312156108b157600080fd5b60006108bf8482850161084c565b91505092915050565b6000602082840312156108da57600080fd5b60006108e884828501610861565b91505092915050565b6108fa81610bde565b82525050565b61090981610bcc565b82525050565b61091881610c26565b82525050565b600061092b601483610b0b565b91507f6578636565646564206d6178696d756d206361700000000000000000000000006000830152602082019050919050565b600061096b601483610b0b565b91507f616d6f756e74206973206e6f7420656e6f7567680000000000000000000000006000830152602082019050919050565b60006109ab601183610b0b565b91507f596f7520617265206e6f74206f776e65720000000000000000000000000000006000830152602082019050919050565b6109e781610c1c565b82525050565b6000602082019050610a026000830184610900565b92915050565b6000602082019050610a1d60008301846108f1565b92915050565b6000604082019050610a386000830185610900565b610a4560208301846109de565b9392505050565b6000602082019050610a61600083018461090f565b92915050565b60006020820190508181036000830152610a808161091e565b9050919050565b60006020820190508181036000830152610aa08161095e565b9050919050565b60006020820190508181036000830152610ac08161099e565b9050919050565b6000602082019050610adc60008301846109de565b92915050565b6000604082019050610af760008301856109de565b610b0460208301846109de565b9392505050565b600082825260208201905092915050565b6000610b2782610c1c565b9150610b3283610c1c565b9250827fffffffffffffffffffffffffffffffffffffffffffffffffffffffffffffffff03821115610b6757610b66610c4a565b5b828201905092915050565b6000610b7d82610c1c565b9150610b8883610c1c565b9250817fffffffffffffffffffffffffffffffffffffffffffffffffffffffffffffffff0483118215151615610bc157610bc0610c4a565b5b828202905092915050565b6000610bd782610bfc565b9050919050565b6000610be982610bfc565b9050919050565b60008115159050919050565b600073ffffffffffffffffffffffffffffffffffffffff82169050919050565b6000819050919050565b6000610c3182610c38565b9050919050565b6000610c4382610bfc565b9050919050565b7f4e487b7100000000000000000000000000000000000000000000000000000000600052601160045260246000fd5b610c8281610bcc565b8114610c8d57600080fd5b50565b610c9981610bf0565b8114610ca457600080fd5b50565b610cb081610c1c565b8114610cbb57600080fd5b5056fea26469706673582212208a690c9698a0ee81746f3075b2c992ddfad323ee6d2d7bf16cd731d14b830a7464736f6c63430008000033",
  "linkReferences": {},
  "deployedLinkReferences": {}
}